:0600000020EF07F01200E2
:020006001200E6
:0600080016EF00F01200EB
:0600180060EF00F0120091
:02001E000100DF
:0C0020005C0E0000000100001F0000004A
:04002C00DACFE4FF44
:10003000E2CFDAFFE6529E9201010F5119E00F075D
:100040000001610702E101010E910001660702E172
:1000500001010E930001750702E101010E950001F7
:100060007A0702E101010E9701010E518C1624D08E
:100070000F0E0E6F0001605103E17E0E01010E179D
:100080000001655102E101010E930001745102E18A
:1000900001010E950001795102E101010E97010164
:1000A0000E518C12130E0F6F60C061F065C066F0C8
:1000B00074C075F079C07AF0E552E5CFDAFF11002F
:1000C000DACFE4FFE2CFDAFFE9CFE4FFEACFE4FFE3
:1000D000E6529EA637D09E96C750010B03E1C7504B
:1000E000040B20E0010110070FE110C1E9FFEA6AEB
:1000F000E9BEEA68880EE926000EEA22C9CFEFFFC2
:10010000040E106FC5840BD010C1E9FFEA6AE9BE86
:10011000EA68880EE926000EEA22C9CFEFFFC59AE9
:10012000C58810D0C7A802D0C5800CD0C550080B18
:1001300005E1C550200B02E1C58604D0C7A602D058
:10014000D10EC96EE552E5CFEAFFE5CFE9FFE5CF75
:10015000DAFF1100D9CFE6FFE1CFD9FF090EE12682
:1001600095909592959495969588959A938093827B
:10017000BBDAC00EC712280EC66EC56A770EC86EEF
:100180009F969D869E96C580D08EF28EF28C9D8223
:100190009F82640ECA6E090ECB6E00017051725DB3
:1001A0006A6F715173596B6F6AC020F06BC021F098
:1001B00012EC04F01FC000F020C001F021C002F0DA
:1001C00022C003F017C124F018C125F019C126F090
:1001D0001AC127F000C01FF001C020F002C021F0BA
:1001E00003C022F0BCEC04F0F6EC05F02050000156
:1001F0006E2721506F236A516E250C6E6B516F2153
:100200000D6E0CC020F00DC021F012EC04F01FC0E8
:1002100008F020C009F021C00AF022C00BF0000154
:100220006C516A5D166E6B516D55176E16C020F0DD
:1002300017C021F012EC04F01FC012F020C013F020
:1002400021C014F022C015F01BC124F01CC125F000
:100250001DC126F01EC127F012C01FF013C020F0F0
:1002600014C021F015C022F0BCEC04F01FC00EF049
:1002700020C00FF021C010F022C011F00EC024F0F9
:100280000FC025F010C026F011C027F008C01FF0E5
:1002900009C020F00AC021F00BC022F026EC04F0C7
:1002A0001FC004F020C005F021C006F022C007F0F6
:1002B00004C024F005C025F006C026F007C027F0D2
:1002C00013C11FF014C120F015C121F016C122F096
:1002D0000FEC05F01FC000F020C001F021C002F0BB
:1002E00022C003F09A0E246E990E256E4C0E266ED7
:1002F000420E276E00C01FF001C020F002C021F0A6
:1003000003C022F0BCEC04F0CFEC05F021C0F3F008
:100310006AC06CF06BC06DF000018451865D7E6F29
:10032000855187597F6F7EC020F07FC021F012EC8D
:1003300004F01FC000F020C001F021C002F022C074
:1003400003F017C124F018C125F019C126F01AC115
:1003500027F000C01FF001C020F002C021F003C050
:1003600022F0BCEC04F0F6EC05F0205000018227EE
:10037000215083237E5182250C6E7F5183210D6E87
:100380000CC020F00DC021F012EC04F01FC008F0EA
:1003900020C009F021C00AF022C00BF000018051FA
:1003A0007E5D166E7F518155176E16C020F017C006
:1003B00021F012EC04F01FC012F020C013F021C095
:1003C00014F022C015F01BC124F01CC125F01DC182
:1003D00026F01EC127F012C01FF013C020F014C079
:1003E00021F015C022F0BCEC04F01FC00EF020C0BC
:1003F0000FF021C010F022C011F00EC024F00FC089
:1004000025F010C026F011C027F008C01FF009C069
:1004100020F00AC021F00BC022F026EC04F01FC02F
:1004200004F020C005F021C006F022C007F004C08F
:1004300024F005C025F006C026F007C027F013C140
:100440001FF014C120F015C121F016C122F00FECED
:1004500005F01FC000F020C001F021C002F022C052
:1004600003F09A0E246E990E256E4C0E266E420EE7
:10047000276E00C01FF001C020F002C021F003C0B1
:1004800022F0BCEC04F0CFEC05F021C0F4F07EC00B
:1004900080F07FC081F0DE6ADD6ADECF00F0DDCF64
:1004A00001F0D890015004E6020E005C000E0158E5
:1004B00001E30FD1D9CFE9FFDACFEAFFEE50ED101B
:1004C00005E0600E006E000E016E04D0740E006E2A
:1004D000000E016E060E00C0DBFF070E01C0DBFF41
:1004E000DECFE9FFDDCFEAFFF30EE926000EEA22B8
:1004F000EFCF00F0000EE76E0018E8AE02D0003437
:1005000003D0E750D880005402E2000E01D0010E63
:10051000E76E020EE7CFDBFFDB0402E1000E01D045
:10052000010EE76E030EE7CFDBFFDECFE9FFDDCF85
:10053000EAFFF30EE926000EEA22EFCF02F0020EE8
:10054000DBCF00F0016A00BE0168050E0102F3CFA7
:1005500001F00002F3CF00F0F4500126060EDB504C
:100560000024E96E070EDB500120EA6EEF500224F2
:10057000E76E040EE7CFDBFF030EDBCF01F0026A6C
:1005800001BE0268050E0202F3CF02F00102F3CFB2
:1005900001F0F4500226060EDB500124E96E070E2E
:1005A000DB500220EA6EEFCF00F0DECFE9FFDDCFB7
:1005B000EAFFF30EE926000EEA22EF50005CE76E38
:1005C000050EE7CFDBFF040EDBCF00F0140EE76E65
:1005D0000018E8AE02D0003403D0E750D8800054B1
:1005E00019E2040EDB50EC0FE76E080EE7CFDBFFDD
:1005F000040EDBCFE7FF080EDB50E75E040EE7CF0B
:10060000DBFF050EDBCFE7FF080EDB50E75E050ED4
:10061000E7CFDBFF050EDBCF00F0003421E3040E53
:10062000DBCFE6FF050EDB50E552E75C006E140EF3
:10063000E76E0018E8AE02D0E73402D0E750005C65
:1006400008E2040EDBCFE6FF050EDB50E552E75C67
:1006500001D0140EE76E040EE7CFDBFF050EDB6A58
:10066000020EDBCF00F0016A00BE0168050E010238
:10067000F3CF01F00002F3CF00F0F4500126060E94
:10068000DB500024E96E070EDB500120EA6E040EF9
:10069000DBCFEFFF030EDBCF00F0016A00BE016885
:1006A000050E0102F3CF01F00002F3CF00F0F45089
:1006B0000126060EDB500024E96E070EDB500120F8
:1006C000EA6E050EDBCFEFFFDF2A010E01E3DB2A26
:1006D000E4D663D5090EE15C02E2E16AE552E16E1F
:1006E000E552E7CFD9FF1200D9CFE6FFE1CFD9FF1E
:1006F000020EE126DE6ADD6A00016A6B6B6B6C6BD1
:100700006D6B6E6B6F6B706B716B726B736B7E6B03
:100710007F6B806B816B826B836B846B856B866B6D
:10072000876BDE6ADD6ADECF00F0DDCF01F0D890A6
:10073000015004E6650E005C000E015829E2140E1B
:10074000206E216ADECF25F0DDCF26F0A2EC05F089
:100750001EC000F01FC001F0640E256E266A00C0A6
:1007600020F001C021F07CEC05F020C000F021C099
:1007700001F0DECFE9FFDDCFEAFF8C0EE926000EA7
:10078000EA2200C0EFFFDF2A010E01E3DB2ACBD70C
:10079000DE6ADD6ADECF00F0DDCF01F00001800E01
:1007A000011414E0DECFE9FFDDCFEAFF640ED8804C
:1007B000E956000EEA568C0EE926000EEA22140EC7
:1007C000EF6EDF2A010E01E3DB2AE4D78CC060F074
:1007D00000018C0E626F0F0E636F646B8CC065F04E
:1007E0008C0E676F0F0E686F010E696FA5C074F0F5
:1007F0008C0E766F0F0E776F020E786FDCC079F07B
:100800008C0E7B6F0F0E7C6F030E7D6F020EE15C12
:1008100002E2E16AE552E16EE552E7CFD9FF12004C
:10082000199E08D0199E21AE05D0206C211EE86AC1
:100830002122198E21C01BF020C01AF02B6A2A6ACF
:100840008E0E1C6E1D6A41EF06F0277E196A7DEC44
:1008500006F095EC06F019B625EF06F019A20AD0BD
:1008600019AA03D019BE25EF06F019A431EF06F03E
:100870002EEF06F019AA05D019AC31EF06F02EEFD5
:1008800006F019A00AD019A808D019BE04D019A4DE
:1008900002D03AEF06F03EEF06F02A6A1D6A2750B2
:1008A000225C296E10E31FC02BF020C01AF021C07B
:1008B0001BF022C028F024C01FF025C020F026C065
:1008C00021F0193A09D024C02BF025C01AF026C017
:1008D0001BF027C028F0296C199E19BC198E28C05E
:1008E0001CF019B06DEF06F01A0E29606DEF06F0DE
:1008F0001C6A226A19A408D01F6C201E211E221E09
:10090000E86A20222122222219AC08D02B6C1A1E60
:100910001B1E1C1EE86A1A221B221C221E6A295258
:1009200007E02234213220321F321E32292EF9D71D
:100930001F502B2620501A2221501B2222501C22ED
:100940001EC02AF0199E1CAE0BD02A6C2B1E1A1E3C
:100950001B1E1C1EE86A2B221A221B221C22198E27
:100960001CA006D0D8801B321A322B322A32282AF9
:1009700028C01CF041EF06F0196A7DEC06F095ECFA
:1009800006F019B625EF06F019A205D019BA25EF21
:1009900006F02CEF06F019BA38EF06F019A005D0D2
:1009A00019B825EF06F038EF06F019B82CEF06F06D
:1009B0001D6A7F0E22241C6EE86A1D2227501C5ED1
:1009C000E86A1D5A1A0E286E226A2A6A2B6A1A6A67
:1009D0001B6A24501F5E2550205A2650215A000EB3
:1009E000225A09E724501F26255020222650212272
:1009F000000E222201D02A8AD8901F3620362136B6
:100A00002236D8902A362B361A361B36282EE1D7B6
:100A1000215020101F10D8A42A8A41EF06F0196A2D
:100A20007DEC06F095EC06F019B625EF06F019A25C
:100A300005D019B825EF06F02CEF06F019AA05D05D
:100A400019B025EF06F02CEF06F019B002D019A866
:100A500002D038EF06F01D6A275022241C6EE86A87
:100A60001D227E0E1C5EE86A1D5A2A6A2B6A1A6ACB
:100A70001B6A26502102F4CF1BF0F3CF1AF0255049
:100A80002102F3502B26F4501A22000E1B2226506E
:100A90002002F3502B26F4501A22000E1B22245061
:100AA0002102F3502A26F4502B22000E1A221B2278
:100AB00025502002F3502A26F4502B22000E1A2231
:100AC0001B2226501F02F3502A26F4502B22000E20
:100AD0001A221B2224502002F4502A26000E2B2218
:100AE0001A221B2225501F02F4502A26000E2B2208
:100AF0001A221B2241EF06F0186A26AE85EF05F098
:100B0000256C261EE86A2622181E21AE8DEF05F000
:100B1000206C211EE86A2122181EFAEC06F021BE84
:100B20009DEF05F018AE000C206C211EE86A212212
:100B30001C6C1D1EE86A1D22000C18BE94EF05F007
:100B40001988FF0C21C02BF020C02AF0205025026C
:100B5000F4CF1FF0F3CF1EF021502602F4CF21F086
:100B6000F3CF20F02502F3501F26F4502022E86A2C
:100B700021222A502602F3501F26F4502022E86A30
:100B8000212226AEC8EF05F02A50205E2B50215AB4
:100B90002BAE000C2550205E2650215A000C196AFD
:100BA0007DEC06F019B6D9EF05F019A20AD019B4F8
:100BB00003D07F0E216E19D0800E216E16D0216ACF
:100BC00014D019B0FCD7870E2260F1D77E0E2264B4
:100BD000F6D7860E225C04E0D8902132222AF9D77B
:100BE00019A403D0216C21AEEAD71200196A7DEC5A
:100BF00006F019B600EF06F019A20ED019B405D010
:100C00007F0E216EFF0E206E1FD0800E216E206A97
:100C10001BD0216A206A18D019B0FBD78F0E226032
:100C2000EDD77E0E2264F5D78E0E225C05E0D890BB
:100C300021322032222AF8D719A406D0206C211E96
:100C4000E86A212221AEE5D712007F0E226EFF0E48
:100C5000216E206E1F6E12007F0E19BEFF0E226ED7
:100C600002D07F0E226E800E216E206A1F6AF3D79B
:100C700019AE04D0800E226E216AF7D7226A216A4B
:100C8000F4D71B501A102B102A10F8E01DBEF0D715
:100C90001BBE0CD01C501D10EBE0D8902A362B3612
:100CA0001A361B361C06D8A01D06F2D71D50D4E1FB
:100CB0001C28D2E02AAE11D07F0E2A1402E12BA00C
:100CC0000CD02B2AE86A1A221B2207E3D8801B3299
:100CD0001A322B321C2A1C28BFE01C50C9E02BC042
:100CE0001FF01AC020F01B34216E1C30226E2132FE
:100CF000229E19BE228E2BEF06F02136223602E309
:100D00001984197E06E11980226A216A206A1F6A05
:100D10001200222803E0D88021321200D89021321C
:100D200002E119821200198612002636273602E3E4
:100D3000198C197E06E11988276A266A256A246AB1
:100D40001200272803E0D88026321200D8902632DD
:060D5000EAE1198A12001D
:0A0D56001E0EF66E000EF76E000E82
:100D6000F86E00010900F550FA6F0900F550FB6FAD
:100D700003E1FA6701D03DD00900F550F56F090095
:100D8000F550F66F0900F550F76F09000900F550AE
:100D9000E96E0900F550EA6E090009000900F550F6
:100DA000F86F0900F550F96F09000900F6CFFCF063
:100DB000F7CFFDF0F8CFFEF0F5C0F6FFF6C0F7FF75
:100DC000F7C0F8FF0001F85302E1F95307E009000A
:100DD000F550EE6EF807F8E2F907F9D7FCC0F6FF18
:100DE000FDC0F7FFFEC0F8FF0001FA07000EFB5B35
:040DF000BFD7120057
:0C0DF4001D6A1C6A100EE76ED8902036B5
:100E000021361C361D3625501C5C26501D5805E326
:100E100025501C5E26501D5A202AE72EF0D71200BE
:100E2000000EF36E00EE00F0080E01D81200EA602A
:100E300002D0EE6AFCD7F350E9601200EE6AFCD7EC
:100E400013EE00F023EE00F0F86A199CABEC06F00C
:0C0E500003EC00F0AAEC00F0FBD712004D
:040E5C000000000092
:100E60000000000000000000000000000403070074
:0B0E70000080400000804100000040B6
