:0600000065EF0EF0120096
:020006001200E6
:0600080068EF04F0120095
:06001800BDEF04F0120030
:02001E000100DF
:0C002000021D000000010000250000008F
:04002C00D9CFE6FF43
:10003000E1CFD9FF070EE126D9CFE9FFDACFEAFFFA
:10004000BFC0EEFFC0C0EEFFC1C0EEFFC2C0EEFFFA
:10005000C3C0EEFFC4C0EEFFC5C0EEFFD9CFE9FFBD
:10006000DACFEAFFEF50010B1BE0010EDB0418E1D1
:10007000C750080B15E0030EDBCFE6FF040EDBCF05
:10008000E6FFE66AB8C0E6FF05D0BCC0FAFF000193
:10009000BB51F96EFADFE552E552E552E55278D0F0
:1000A000D9CFE9FFDACFEAFFEF50010B51E0C7509B
:1000B000100B03E1C750080B1DE0D950030FE96E88
:1000C000DACFEAFFEE50ED1014E0030EDBCF00F0C4
:1000D000040EDBCF01F0E66AB9C0E6FFBAC0E6FF66
:1000E00004D001C0FAFF0050F96EFBDFE552E55283
:1000F000E5522DD0C750010B03E1C750040B27E098
:10010000D950050FE96EDACFEAFFEE50ED1018E096
:10011000050EDBCF00F0060EDBCF01F0C950E66E16
:10012000E66AB9C0E6FFBAC0E6FF04D001C0FAFF34
:100130000050F96EFBDFE552E552E552E55202D080
:10014000010EC914E8B0C58AE8A0C59AC58820D0B8
:10015000D950030FE96EDACFEAFFEE50ED1018E048
:10016000030EDBCF00F0040EDBCF01F0C550400BD7
:1001700001E0010EE66EB9C0E6FFBAC0E6FF04D0AA
:1001800001C0FAFF0050F96EFBDFE552E552E5527F
:100190000AD8070EE15C02E2E16AE552E16EE5523F
:1001A000E7CFD9FF1200D9CFE6FFE1CFD9FF080E84
:1001B000E1260001B4513F0BE8BAC009DF6EB4512B
:1001C0003F0BE8BAC009000901E1B4D0600EE96E46
:1001D000000EEA6E550EE926000EEA22EF503F0BA4
:1001E000E8BAC009256EE82AF36EF3503F0BF36EB0
:1001F000F46EC00EEF14F310EF6E25C0E9FFEA6A4B
:10020000E9BEEA68070EEA02F3CFEAFFE902F3CF9C
:10021000E9FFF450EA26600EE926000EEA22010EFC
:10022000D926EECFDEFFEECFDEFFEECFDEFFEECF44
:10023000DEFFEECFDEFFEECFDEFFEECFDEFF080EFD
:10024000D95E010EDBCFBFF0020EDBCFC0F0030E94
:10025000DBCFC1F0040EDBCFC2F0050EDBCFC3F065
:10026000060EDBCFC4F0070EDBCFC5F0600EE96EE3
:10027000000EEA6E540EE926000EEA22EF503F0B04
:10028000E8BAC009E806F36EF3503F0BF36EF46E64
:10029000C00EEF14F310EF6EB5513F0BE8BAC00972
:1002A000006E060EE76E0018E8AE02D0E73402D00A
:1002B000E750005C20E3060E006E600EE96E000E53
:1002C000EA6E550EE926000EEA22EF503F0BE8BA1F
:1002D000C009256E00C02AF074EC0CF000BE216C41
:1002E00021503F0B216E226EC00EEF142110EF6ED5
:1002F0002250E8BAC009D950010FE96EDACFEAFFFF
:10030000EF50010B07E0030EDB5004E0020EDB5060
:10031000C5120FD0D950010FE96EDACFEAFFEF50C6
:10032000010B04E0020EDB1CC51603D0030EDB50EC
:10033000C96E95D0B6513F0BE8BAC009000901E17A
:100340008ED0600EE96E000EEA6E570EE926000EA2
:10035000EA22EF503F0BE8BAC009256EE82AF36E97
:10036000F3503F0BF36EF46EC00EEF14F310EF6E0C
:1003700025C0E9FFEA6AE9BEEA68070EEA02F3CFA0
:10038000EAFFE902F3CFE9FFF450EA268A0EE926F4
:10039000000EEA22EECFB8F0EECFB9F0EECFBAF011
:1003A000EECFBBF0EECFBCF0EECFBDF0EFCFBEF0A6
:1003B000600EE96E000EEA6E560EE926000EEA2285
:1003C000EF503F0BE8BAC009E806F36EF3503F0B5D
:1003D000F36EF46EC00EEF14F310EF6EB7513F0BD7
:1003E000E8BAC009006E060EE76E0018E8AE02D04B
:1003F000E73402D0E750005C20E3060E006E600E8A
:10040000E96E000EEA6E570EE926000EEA22EF5062
:100410003F0BE8BAC009256E00C02AF074EC0CF05E
:1004200000BE216C21503F0B216E226EC00EEF14D6
:100430002110EF6E2250E8BAC009000EE66EE66A9F
:10044000BDC0E6FFBEC0E6FF010EE66EE66EE66EDC
:100450006ED9006E070EE15E0050A5DEDF6EDF5044
:10046000006E080EE15C03E200D0E16AE552E16E45
:100470000050E552E7CFD9FF1200D9CFE6FFE1CF18
:10048000D9FF938093820001B491B493B495B4974B
:10049000B499B49BB591B593B595B597B599B59BFE
:1004A000B691B693B695B697B699B69BB791B793F2
:1004B000B795B797B799B79BC78C280EC66EC56A14
:1004C000770EC86E9F969E969D86E552E7CFD9FF20
:1004D0001200D9CFE6FFE1CFD9FFE6520001B651B5
:1004E0003F0BE8BAC009016EB7513F0BE8BAC0092B
:1004F0000124006E00C025F0060E2A6E74EC0CF08C
:100500002150DF6EFD0EDBCFE6FFFE0EDB50E82450
:10051000E552E710E66EDFCFE9FFEA6AE9BEEA6876
:10052000070EEA02F3CFEAFFE902F3CFE9FFF45046
:10053000EA268A0EE926000EEA22E552E750EF6E1F
:10054000DFCFE9FFEA6AE9BEEA68070EEA02F3CF05
:10055000EAFFE902F3CFE9FFF450EA268A0EE92622
:10056000000EEA22EE52FB0EDBCFEEFFFC0EDBCFDD
:10057000EDFFDFCFE9FFEA6AE9BEEA68070EEA02AB
:10058000F3CFEAFFE902F3CFE9FFF450EA268A0E3F
:10059000E926000EEA22050EE926000EEA22F90EEF
:1005A000DBCFEEFFFA0EDBCFEDFFDFCFE9FFEA6A2C
:1005B000E9BEEA68070EEA02F3CFEAFFE902F3CFE9
:1005C000E9FFF450EA268A0EE926000EEA22030E1D
:1005D000E926000EEA22F80EEE6E060EED6E600EB3
:1005E000E96E000EEA6E560EE926000EEA22EF5082
:1005F0003F0BE8BAC009E82AF36EF3503F0BF36EE5
:10060000F46EC00EEF14F310EF6EF450E8BAC009A8
:10061000E552E552E7CFD9FF1200D9CFE6FFE1CF8F
:10062000D9FF000EE66EE66AFD0EDBCFE6FFFE0E9A
:10063000DBCFE6FF010EE66E020EE66E010EE66E01
:1006400076D8006E070EE15E0050E552E7CFD9FF85
:100650001200D9CFE6FFE1CFD9FF000EE66EE66AC1
:10066000FC0EDBCFE6FFFD0EDBCFE6FFFE0EDBCFA1
:10067000E6FFE66AE66A5BD8006E070EE15E0050B0
:10068000E552E7CFD9FF1200D9CFE6FFE1CFD9FF7E
:10069000FD0EDBCFE6FFFE0EDBCFE6FF000EE66EC3
:1006A000E66A010EE66E080EE66E010EE66E3FD8B3
:1006B000006E070EE15E0050E552E7CFD9FF120051
:1006C000D9CFE6FFE1CFD9FF000EE66EE66AFD0E58
:1006D000DBCFE6FFFE0EDBCFE6FF010EE66E040E7B
:1006E000E66E010EE66E23D8006E070EE15E005046
:1006F000E552E7CFD9FF1200D9CFE6FFE1CFD9FF0E
:10070000000EE66EE66AFB0EDBCFE6FFFC0EDBCFEB
:10071000E6FFFE0EDBCFE6FFE66AE66A08D8006E6B
:10072000070EE15E0050E552E7CFD9FF1200D9CFA6
:10073000E6FFE1CFD9FFE6520001B4513F0BE8BA22
:10074000C009016EB5513F0BE8BAC0090124006E23
:1007500000C025F0060E2A6E74EC0CF02150DF6EFE
:10076000FE0EDB50006EDFCFE9FFEA6AE9BEEA6801
:10077000070EEA02F3CFEAFFE902F3CFE9FFF450F4
:10078000EA26600EE926000EEA220050010BF36E05
:10079000FE0EEF14F310EF6EDFCFE9FFEA6AE9BE59
:1007A000EA68070EEA02F3CFEAFFE902F3CFE9FFB6
:1007B000F450EA26600EE926000EEA22EE52FD0E03
:1007C000DBCFEFFFDFCFE9FFEA6AE9BEEA68070E99
:1007D000EA02F3CFEAFFE902F3CFE9FFF450EA2699
:1007E000600EE926000EEA22020EE926000EEA2239
:1007F000FC0EDBCFEFFFDFCFE9FFEA6AE9BEEA6874
:10080000070EEA02F3CFEAFFE902F3CFE9FFF45063
:10081000EA26600EE926000EEA22030EE926000E03
:10082000EA22FA0EDBCFEEFFFB0EDBCFEDFFDFCFD0
:10083000E9FFEA6AE9BEEA68070EEA02F3CFEAFFD7
:10084000E902F3CFE9FFF450EA26600EE926000E34
:10085000EA22050EE926000EEA22F80EDBCFEEFFB3
:10086000F90EDBCFEDFF600EE96E000EEA6E540E5E
:10087000E926000EEA22EF503F0BE8BAC009E82A49
:10088000F36EF3503F0BF36EF46EC00EEF14F310E3
:10089000EF6EF450E8BAC009DFCF00F0016A00BE85
:1008A0000168070E0102F3CF01F00002F3CF00F060
:1008B000F4500126600E0026000E012200C0F3FF56
:1008C00001C0F4FF00D0E552E552E7CFD9FF120096
:1008D000DACFE4FFE2CFDAFFE6529E920101125135
:1008E0001DE012070001C70703E10E0E01011117F9
:1008F0000001CC0703E10D0E010111170001DB0718
:1009000003E10B0E010111170001E00703E1070EDF
:1009100001011117010111518C162BD00001C65194
:1009200002E0010111810001CB5102E001011183BC
:100930000001DA5102E0010111850001DF5102E0FE
:1009400001011187010111518C120F51101107E0A3
:100950000E0705E10F07000E105B050E0E6F130E5C
:10096000126FC6C0C7F0CBC0CCF0DAC0DBF0DFC07E
:10097000E0F0E552E5CFDAFF1100DACFE4FFE2CF95
:10098000DAFFE9CFE4FFEACFE4FFF6CFE4FFF7CFE9
:10099000E4FFF5CFE4FFF3CFE4FFF4CFE4FFFACFB9
:1009A000E4FF00EE1CF0140EE80403E3EECFE4FFD6
:1009B000FBD700EE00F01C0EE80403E3EECFE4FFEB
:1009C000FBD7E6529EA684D09E960101175103E004
:1009D00016EC00F07DD0C5AC02D0898201D089929E
:1009E000070E145D03E1146BC58472D0C750010B70
:1009F00003E1C750040B36E0130726E113C1E9FFFA
:100A0000EA6AE9BEEA68EE0EE926000EEA22C9CFDC
:100A1000EFFF020E136FEEC032F0336A32BE33685E
:100A20001451142B306E316A30BE3168D890303694
:100A3000313615513024E96E16513120EA6E32C03C
:100A4000EEFF33C0EDFF0BD013C1E9FFEA6AE9BE48
:100A5000EA68EE0EE926000EEA22C9CFEFFFC59A3A
:100A6000C58836D0C7A803D0186BC58031D0C75011
:100A7000080B08E0180506E1C796020E186F3B0E3A
:100A8000C96E26D0C750080B08E0020E185D05E1BC
:100A9000C796030E186FC5821BD0C750080B11E014
:100AA000040E185D0EE0C796030E185D05E1040EF6
:100AB000186FA10EC96E04D0010E186FA00EC96E7A
:100AC00007D0C550080B04E1C550200B01E1C586D5
:100AD000E55200EE1BF01C0EE80403E3E5CFEDFF4A
:100AE000FBD700EE2FF0140EE80403E3E5CFEDFF93
:100AF000FBD7E5CFFAFFE5CFF4FFE5CFF3FFE5CF76
:100B0000F5FFE5CFF7FFE5CFF6FFE5CFEAFFE5CF4D
:100B1000E9FFE5CFDAFF11009280929292949296CB
:100B200095909592959495969588959A93809382B1
:100B300056EC0AF0D08EF28EF28C9D829F82640E6B
:100B4000CA6E090ECB6E89828994E80EE66E030E9A
:100B5000E66E43EC0AF0E552E5528992800EE66EAD
:100B60001A0EE66E8ADCE552E552070EE66E190EA5
:100B7000E66ECAD8E552E552E66A6B0EE66EC4D858
:100B8000E552E552E66A1A0EE66EBED8E552E55227
:100B9000180EE66E1B0EE66EB7D8E552E552E66A11
:100BA0001C0EE66EB1D8E552E552D3EC00F001011F
:100BB000093504E208510008000E095505E208C194
:100BC00000F009C101F008D008C100F009C101F02E
:100BD000006C011E000E01220050011001E08CD0BB
:100BE0000D3504E20C510008000E0D5505E20CC154
:100BF00002F00DC103F008D00CC102F00DC103F0EA
:100C0000026C031E000E03220250031075E10B3527
:100C100004E20A510008000E0B5505E20AC104F077
:100C20000BC105F008D00AC104F00BC105F0046C3B
:100C3000051E000E0522045005105EE1073504E292
:100C400006510008000E075505E206C106F007C16F
:100C500007F008D006C106F007C107F0066C071EB2
:100C6000000E07220650071047E1013504E200514B
:100C70000008000E015505E200C108F001C109F0AD
:100C800008D000C108F001C109F0086C091E000E6F
:100C900009220850091030E1033504E2025100082E
:100CA000000E035505E202C10AF003C10BF008D0A3
:100CB00002C10AF003C10BF00A6C0B1E000E0B22DE
:100CC0000A500B1019E1053504E204510008000E2A
:100CD000055505E204C10CF005C10DF008D004C1B2
:100CE0000CF005C10DF00C6C0D1E000E0D220C5009
:100CF0000D1002E1000E01D0010EE8B08984E8A0D9
:100D0000899455D735EF07F0D9CFE6FFE1CFD9FF6A
:100D1000020EE126FD0EDB50DF6EFE0EDB50E76EAD
:100D2000010EE7CFDBFF0101172B600EE66E0D0E03
:100D3000E66EDECFE6FFDDCFE6FFE66A500EE66E3A
:100D400069EC02F0006E060EE15E0050020EE15CFE
:100D500002E2E16AE552E16EE552E7CFD9FF120007
:100D6000D9CFE6FFE1CFD9FF020EE126D950FD0F22
:100D7000006EFF0EDA20016E00C0DEFF01C0DDFF55
:100D8000FC0EDB50E8B08982E8A08992BC0EE66ECA
:100D90000D0EE66EDECFE9FFDDCFEAFFEF50E66E27
:100DA00058DCE552E552E552020EE15C02E2E16AEE
:100DB000E552E16EE552E7CFD9FF1200D9CFE6FF49
:100DC000E1CFD9FF020EE126D950FD0F006EFF0ED4
:100DD000DA20016E00C0DEFF01C0DDFFFC0EDB503B
:100DE000E8B08982E8A08992200EE66E0E0EE66ECB
:100DF000DECFE9FFDDCFEAFF010EE926000EEA2291
:100E0000EF50E66E26DCE552E552E552020EE15C5B
:100E100002E2E16AE552E16EE552E7CFD9FF120046
:100E2000D9CFE6FFE1CFD9FFFC0EDB50E8B08982D5
:100E3000E8A089924A0EE66E0E0EE66E41DCE5529F
:100E4000E552E552E7CFD9FF1200D9CFE6FFE1CF57
:100E5000D9FF01011707175101E1C580E552E7CF1E
:100E6000D9FF1200120012001200D9CFE6FFE1CF25
:100E7000D9FF0C0EE126DE6ADD6ADECF00F0DDCFA1
:100E800001F0D890015004E6020E005C000E0158FB
:100E900001E3E2D2DECFE9FFDDCFEAFF140EEA0282
:100EA000F3CFEAFFE902F3CFE9FFF450EA26C60EDA
:100EB000E926000EEA22120EE926000EEA22EECF03
:100EC00002F0EFCF03F0DECFE9FFDDCFEAFF140E33
:100ED000EA02F3CFEAFFE902F3CFE9FFF450EA2692
:100EE000C60EE926000EEA22100EE926000EEA22BE
:100EF000EE50025C006EEE500358016EDECFE9FF4B
:100F0000DDCFEAFF140EEA02F3CFEAFFE902F3CFE6
:100F1000E9FFF450EA26C60EE926000EEA220A0E80
:100F2000E926000EEA2200C0EEFF01C0EDFFDECF91
:100F3000E9FFDDCFEAFF140EEA02F3CFEAFFE90290
:100F4000F3CFE9FFF450EA26C60EE926000EEA22A6
:100F50000A0EE926000EEA22EECF06F0EFCF07F0E8
:100F600006C024F007C025F00AEC0BF023C002F005
:100F700024C003F025C004F026C005F01DC128F0F0
:100F80001EC129F01FC12AF020C12BF002C023F09E
:100F900003C024F004C025F005C026F0B4EC0BF02B
:100FA00008EC0DF024C000F025C001F0DECFE9FF11
:100FB000DDCFEAFF140EEA02F3CFEAFFE902F3CF36
:100FC000E9FFF450EA26C60EE926000EEA220E0ECC
:100FD000E926000EEA220050EE260150ED22DECF77
:100FE000E9FFDDCFEAFF140EEA02F3CFEAFFE902E0
:100FF000F3CFE9FFF450EA26C60EE926000EEA22F6
:101000000A0EE926000EEA22EECF0EF0EFCF0FF027
:10101000DECFE9FFDDCFEAFF140EEA02F3CFEAFFED
:10102000E902F3CFE9FFF450EA26C60EE926000EE6
:10103000EA220E0EE926000EEA220E50EE240C6E75
:101040000F50EE200D6E0CC024F00DC025F00AEC00
:101050000BF023C008F024C009F025C00AF026C018
:101060000BF0DECFE9FFDDCFEAFF140EEA02F3CF8B
:10107000EAFFE902F3CFE9FFF450EA26C60EE926BB
:10108000000EEA220A0EE926000EEA22EECF1AF03E
:10109000EFCF1BF0DECFE9FFDDCFEAFF140EEA024F
:1010A000F3CFEAFFE902F3CFE9FFF450EA26C60ED8
:1010B000E926000EEA220C0EE926000EEA22EE5086
:1010C0001A5C186EEE501B58196E18C024F019C027
:1010D00025F00AEC0BF023C014F024C015F025C055
:1010E00016F026C017F021C128F022C129F023C133
:1010F0002AF024C12BF014C023F015C024F016C030
:1011000025F017C026F0B4EC0BF023C010F024C07B
:1011100011F025C012F026C013F010C028F011C045
:1011200029F012C02AF013C02BF008C023F009C028
:1011300024F00AC025F00BC026F01EEC0BF023C0F3
:1011400004F024C005F025C006F026C007F004C056
:1011500028F005C029F006C02AF007C02BF019C1FD
:1011600023F01AC124F01BC125F01CC126F007ECA6
:101170000CF023C000F024C001F025C002F026C00E
:1011800003F09A0E286E990E296E4C0E2A6E420EAE
:101190002B6E00C023F001C024F002C025F003C074
:1011A00026F0B4EC0BF0E1EC0CF0020E25C0DBFFF6
:1011B000DECFE9FFDDCFEAFF140EEA02F3CFEAFF4C
:1011C000E902F3CFE9FFF450EA26C60EE926000E45
:1011D000EA220A0EE926000EEA22EECF00F0EFCF57
:1011E00001F0DECFE9FFDDCFEAFF140EEA02F3CF14
:1011F000EAFFE902F3CFE9FFF450EA26C60EE9263A
:10120000000EEA220C0EE926000EEA2200C0EEFFD4
:1012100001C0EDFF020EDBCFE6FFDECFE9FFDDCF41
:10122000EAFF140EEA02F3CFEAFFE902F3CFE9FF87
:10123000F450EA26C60EE926000EEA22EF50E552E7
:10124000E724E66ED950030F006EDACF01F0DE50CE
:101250000024E96EDD500120EA6EE552E750EF6EA2
:10126000020EDBCFE6FFDECFE9FFDDCFEAFF140E93
:10127000EA02F3CFEAFFE902F3CFE9FFF450EA26EE
:10128000C60EE926000EEA22050EE926000EEA2225
:10129000EF50E552D880E754E66ED950050F006E46
:1012A000DACF01F0DE500024E96EDD500120EA6E55
:1012B000E552E750EF6E020EDBCF00F0000EE76E56
:1012C0000018E8AE02D0003403D0E750D8800054B4
:1012D00023E2D950030F026EDACF03F0DE5002246E
:1012E000006EDD500320016E070E00C0DBFF080E0C
:1012F00001C0DBFFD950050F026EDACF03F0DE50DC
:101300000224006EDD500320016E090E00C0DBFFD9
:101310000A0E01C0DBFF22D0D950030F026EDACFD4
:1013200003F0DE500224006EDD500320016E090E32
:1013300000C0DBFF0A0E01C0DBFFD950050F026EB3
:10134000DACF03F0DE500224006EDD500320016E80
:10135000070E00C0DBFF080E01C0DBFF070EDBCF6E
:10136000E9FF080EDBCFEAFFEFCF00F0140EE76EC7
:101370000018E8AE02D0003403D0E750D880005403
:101380001EE2070EDBCFE9FF080EDBCFEAFFEF50CE
:10139000EC0FE76E0B0EE7CFDBFF070EDBCFE9FFAD
:1013A000080EDBCFEAFF0B0EDB50EF5E090EDBCF42
:1013B000E9FF0A0EDBCFEAFF0B0EDB50EF5E090EF2
:1013C000DBCFE9FF0A0EDBCFEAFFEFCF00F00034FE
:1013D0003EE3070EDBCFE9FF080EDBCFEAFFEFCFDE
:1013E00001F0090EDBCFE9FF0A0EDBCFEAFFEF5079
:1013F000015C006E140EE76E0018E8AE02D0E73410
:1014000002D0E750005C11E2070EDBCFE9FF080EC7
:10141000DBCFEAFFEFCF02F0090EDBCFE9FF0A0EC8
:10142000DBCFEAFFEF50025C01D0140EE66E070E30
:10143000DBCFE9FF080EDBCFEAFFE552E750EF6EA6
:10144000090EDBCFE9FF0A0EDBCFEAFFEF6ADF2AE6
:10145000010E01E3DB2A11D5030EDBCFC6F0050E2A
:10146000DBCFCBF0040EDBCFDAF0060EDBCFDFF004
:1014700002D50C0EE15C02E2E16AE552E16EE55252
:10148000E7CFD9FF1200D9CFE6FFE1CFD9FFFD0E9C
:10149000DBCF0FF1FE0EDBCF10F101010F51101168
:1014A00001E0FBD7E552E7CFD9FF1200D9CFE6FF25
:1014B000E1CFD9FF020EE126DE6ADD6A0001D06BC2
:1014C000D16BD26BD36BD46BD56BD66BD76BD86B20
:1014D000D96BE46BE56BE66BE76BE86BE96BEA6B8A
:1014E000EB6BEC6BED6BDE6ADD6ADECF00F0DDCF1F
:1014F00001F0D890015004E6650E005C000E015822
:101500002AE2140E246E256ADECF29F0DDCF2AF000
:10151000B4EC0CF022C000F023C001F0640E296E80
:101520002A6A00C024F001C025F08EEC0CF024C023
:1015300000F025C001F0DECFF6FFDDCFF7FF180E7B
:10154000F6261C0EF72200C0F5FF0C00DF2A010E64
:1015500001E3DB2ACAD7DE6ADD6ADECF00F0DDCF29
:1015600001F00001800E011415E0DECFF6FFDDCFA3
:10157000F7FF640ED880F656000EF756180EF626C2
:101580001C0EF722140EF56E0C00DF2A010E01E38B
:10159000DB2AE3D7180EF66E1C0EF76E0800F5CFA7
:1015A000C6F000018C0EC86F0F0EC96FCA6B180E03
:1015B000F66E1C0EF76E0800F5CFCBF08C0ECD6FDB
:1015C0000F0ECE6F010ECF6F310EF66E1C0EF76E42
:1015D0000800F5CFDAF08C0EDC6F0F0EDD6F020E17
:1015E000DE6F680EF66E1C0EF76E0800F5CFDFF0AA
:1015F0008C0EE16F0F0EE26F030EE36F020EE15CE3
:1016000002E2E16AE552E16EE552E7CFD9FF12004E
:101610001D9E08D01D9E25AE05D0246C251EE86AAF
:1016200025221D8E25C01FF024C01EF02F6A2E6AB1
:101630008E0E206E216A53EF0DF02B7E1D6A8FEC0B
:101640000DF0A7EC0DF01DB637EF0DF01DA20AD07E
:101650001DAA03D01DBE37EF0DF01DA443EF0DF002
:1016600040EF0DF01DAA05D01DAC43EF0DF040EF8B
:101670000DF01DA00AD01DA808D01DBE04D01DA4C9
:1016800002D04CEF0DF050EF0DF02E6A216A2B5076
:10169000265C2D6E10E323C02FF024C01EF025C061
:1016A0001FF026C02CF028C023F029C024F02AC047
:1016B00025F01D3A09D028C02FF029C01EF02AC0FD
:1016C0001FF02BC02CF02D6C1D9E1DBC1D8E2CC040
:1016D00020F01DB07FEF0DF01A0E2D607FEF0DF0A2
:1016E000206A266A1DA408D0236C241E251E261EEF
:1016F000E86A2422252226221DAC08D02F6C1E1E4B
:101700001F1E201EE86A1E221F222022226A2D523E
:1017100007E0263425322432233222322D2EF9D707
:1017200023502F2624501E2225501F2226502022CF
:1017300022C02EF01D9E20AE0BD02E6C2F1E1E1E22
:101740001F1E201EE86A2F221E221F2220221D8E0D
:1017500020A006D0D8801F321E322F322E322C2AE3
:101760002CC020F053EF0DF01D6A8FEC0DF0A7ECAC
:101770000DF01DB637EF0DF01DA205D01DBA37EFE5
:101780000DF03EEF0DF01DBA4AEF0DF01DA005D093
:101790001DB837EF0DF04AEF0DF01DB83EEF0DF01C
:1017A000216A7F0E2624206EE86A21222B50205EBB
:1017B000E86A215A1A0E2C6E266A2E6A2F6A1E6A51
:1017C0001F6A2850235E2950245A2A50255A000E99
:1017D000265A09E728502326295024222A50252258
:1017E000000E262201D02E8AD890233624362536A4
:1017F0002636D8902E362F361E361F362C2EE1D7A1
:10180000255024102310D8A42E8A53EF0DF01D6A02
:101810008FEC0DF0A7EC0DF01DB637EF0DF01DA20B
:1018200005D01DB837EF0DF03EEF0DF01DAA05D025
:101830001DB037EF0DF03EEF0DF01DB002D01DA82A
:1018400002D04AEF0DF0216A2B502624206EE86A60
:1018500021227E0E205EE86A215A2E6A2F6A1E6AB5
:101860001F6A2A502502F4CF1FF0F3CF1EF0295033
:101870002502F3502F26F4501E22000E1F222A505C
:101880002402F3502F26F4501E22000E1F2228504F
:101890002502F3502E26F4502F22000E1E221F2266
:1018A00029502402F3502E26F4502F22000E1E221F
:1018B0001F222A502302F3502E26F4502F22000E0E
:1018C0001E221F2228502402F4502E26000E2F2202
:1018D0001E221F2229502302F4502E26000E2F22F2
:1018E0001E221F2253EF0DF01C6A2AAE7AEF0CF075
:1018F0002A6C1C1E25AE7FEF0CF0256C1C1E73ECB1
:101900000EF025BE89EF0CF01CAE000C256C216C8E
:10191000000C1CBE86EF0CF01D88FF0C1C6A2AAE62
:1019200097EF0CF0296C2A1EE86A2A221C1E25AEAD
:101930009FEF0CF0246C251EE86A25221C1E3FEC4C
:101940000EF025BEAFEF0CF01CAE000C246C251E73
:10195000E86A2522206C211EE86A2122000C1CBEA8
:10196000A6EF0CF01D88FF0C25C02FF024C02EF030
:1019700024502902F4CF23F0F3CF22F025502A027D
:10198000F4CF25F0F3CF24F02902F3502326F450AE
:101990002422E86A25222E502A02F3502326F450EE
:1019A0002422E86A25222AAEDAEF0CF02E50245EBB
:1019B0002F50255A2FAE000C2950245E2A50255A4C
:1019C000000C1D6A8FEC0DF01DB6EBEF0CF01DA2A4
:1019D0000AD01DB403D07F0E256E19D0800E256E5F
:1019E00016D0256A14D01DB0FCD7870E2660F1D71B
:1019F0007E0E2664F6D7860E265C04E0D89025324B
:101A0000262AF9D71DA403D0256C25AEEAD71200EB
:101A10001D6A8FEC0DF01DB612EF0DF01DA20ED059
:101A20001DB405D07F0E256EFF0E246E1FD0800ED4
:101A3000256E246A1BD0256A246A18D01DB0FBD7F6
:101A40008F0E2660EDD77E0E2664F5D78E0E265CAF
:101A500005E0D89025322432262AF8D71DA406D0D6
:101A6000246C251EE86A252225AEE5D712007F0EDC
:101A7000266EFF0E256E246E236E12007F0E1DBE95
:101A8000FF0E266E02D07F0E266E800E256E246A13
:101A9000236AF3D71DAE04D0800E266E256AF7D7D1
:101AA000266A256AF4D71F501E102F102E10F8E05A
:101AB00021BEF0D71FBE0CD020502110EBE0D890F3
:101AC0002E362F361E361F362006D8A02106F2D716
:101AD0002150D4E12028D2E02EAE11D07F0E2E145A
:101AE00002E12FA00CD02F2AE86A1E221F2207E352
:101AF000D8801F321E322F32202A2028BFE02050EB
:101B0000C9E02FC023F01EC024F01F34256E203002
:101B1000266E2532269E1DBE268E3DEF0DF0253603
:101B2000263602E31D841D7E06E11D80266A256A95
:101B3000246A236A1200262803E0D8802532120086
:101B4000D890253202E11D8212001D8612002A362D
:101B50002B3602E31D8C1D7E06E11D882B6A2A6A46
:101B6000296A286A12002B2803E0D8802A32120042
:0A1B7000D8902A32EAE11D8A120023
:061B7A001E0EF66E000EC7
:101B8000F76E000EF86E00010900F550F76F0900BE
:101B9000F550F86F03E1F76701D03DD00900F5502B
:101BA000F26F0900F550F36F0900F550F46F09006A
:101BB0000900F550E96E0900F550EA6E09000900C8
:101BC0000900F550F56F0900F550F66F090009009E
:101BD000F6CFF9F0F7CFFAF0F8CFFBF0F2C0F6FF4E
:101BE000F3C0F7FFF4C0F8FF0001F55302E1F6532C
:101BF00007E00900F550EE6EF507F8E2F607F9D7B1
:101C0000F9C0F6FFFAC0F7FFFBC0F8FF0001F707C5
:081C1000000EF85BBFD71200C3
:081C18000000000000000000C4
:101C200000000000000000000000000000000000B4
:101C300000000000000000000000000000000000A4
:101C40000000000000000000000000000000000094
:101C50000000000000000000000000000000000084
:101C60000000000000000000000000000000000074
:0D1C70000000000000000000000000000067
:021C7E00216AD9
:101C8000206A100EE76ED89024362536203621368D
:101C90002950205C2A50215805E32950205E2A5003
:0A1CA000215A242AE72EF0D7120083
:061CAA00000EF36E00EED7
:101CB00000F0080E01D81200EA6002D0EE6AFCD7EC
:0A1CC000F350E9601200EE6AFCD751
:061CCA0013EE00F023EE12
:101CD00000F0F86A1D9CBDEC0DF003EC00F08CECFC
:061CE00005F0FBD7120025
:0A1CE600216A080EE76ED89025363B
:101CF00021362A50215C02E3216E252AE72EF7D7F0
:021D00001200CF
:0E1D02000100010001000100010001000100CC
:101D100005000000000200000100000000804000FB
:071D200000804100000040BB
