:0600000028EF02F01200DF
:020006001200E6
:0600080016EF00F01200EB
:060018005DEF00F0120094
:02001E000100DF
:0C0020006C040000000100002F00000034
:04002C00DACFE4FF44
:10003000E2CFDAFFE6529E9201011F5119E01F073D
:100040000001CA0702E101011E910001CF0702E190
:1000500001011E930001D40702E101011E95000178
:10006000D90702E101011E9701011E518C1621D012
:100070000001C95102E001011E810001CE5102E0E0
:1000800001011E830001D35102E001011E85000120
:10009000D85102E001011E8701011E518C12130E7E
:1000A0001F6FC9C0CAF0CEC0CFF0D3C0D4F0D8C043
:1000B000D9F0E552E5CFDAFF1100DACFE4FFE2CF65
:1000C000DAFFE9CFE4FFEACFE4FFE652D9CFE6FF5B
:1000D000E1CFD9FF070EE1269EA638D09E96C750E5
:1000E000010B03E1C750040B20E0010120070FE1E1
:1000F00020C1E9FFEA6AE9BEEA68600EE926000E5F
:10010000EA22C9CFEFFF040E206FC5840BD020C1B7
:10011000E9FFEA6AE9BEEA68600EE926000EEA2213
:10012000C9CFEFFFC59AC58810D0C7A802D0C58037
:100130000CD0C550080B05E1C550200B02E1C58667
:1001400004D0C7A602D0D10EC96E00D0070EE15C64
:1001500002E2E16AE552E16EE552E7CFD9FFE552EE
:10016000E5CFEAFFE5CFE9FFE5CFDAFF1100959093
:100170009592959495969588959A9380938219D89F
:10018000C00EC712280EC66EC56A770EC86E9F963F
:100190009D869E96C580D08EF28EF28C9D829F8227
:1001A000640ECA6E090ECB6E9E9C9F9C9D8CFFD7E1
:1001B0001200D9CFE6FFE1CFD9FF020EE126DE6AB9
:1001C000DD6ADE6ADD6ADECF14F0DDCF15F0D8908F
:1001D000155004E6650E145C000E155829E2140E45
:1001E000086E096ADECF0DF0DDCF0EF086EC01F06F
:1001F00006C014F007C015F0640E0D6E0E6A14C030
:1002000008F015C009F060EC01F008C014F009C056
:1002100015F0DECFE9FFDDCFEAFF640EE926000E20
:10022000EA2214C0EFFFDF2A010E01E3DB2ACBD75D
:10023000DE6ADD6ADECF14F0DDCF15F00001800E3E
:10024000151414E0DECFE9FFDDCFEAFF640ED8809D
:10025000E956000EEA56640EE926000EEA22140E54
:10026000EF6EDF2A010E01E3DB2AE4D764C0C9F098
:1002700000018C0ECB6F0F0ECC6FCD6B64C0CEF037
:100280008C0ED06F0F0ED16F010ED26F7DC0D3F0E8
:100290008C0ED56F0F0ED66F020ED76FB4C0D8F08C
:1002A0008C0EDA6F0F0EDB6F030EDC6F020EE15C5B
:1002B00002E2E16AE552E16EE552E7CFD9FF1200B2
:1002C000006A0EAE69EF01F00D6C0E1EE86A0E2298
:1002D000001E09AE71EF01F0086C091EE86A0922E0
:1002E000001E02EC02F009BE81EF01F000AE000C2E
:1002F000086C091EE86A0922046C051EE86A0522DA
:10030000000C00BE78EF01F00188FF0C09C013F06B
:1003100008C012F008500D02F4CF07F0F3CF06F03A
:1003200009500E02F4CF09F0F3CF08F00D02F3509C
:100330000726F4500822E86A092212500E02F350F0
:100340000726F4500822E86A09220EAEACEF01F04D
:100350001250085E1350095A13AE000C0D50085E7F
:060360000E50095A000CCA
:0A0366001E0EF66E000EF76E000E7C
:10037000F86E00010900F550E46F0900F550E56FD3
:1003800003E1E46701D03DD00900F550DF6F0900BB
:10039000F550E06F0900F550E16F09000900F550D4
:1003A000E96E0900F550EA6E090009000900F550F0
:1003B000E26F0900F550E36F09000900F6CFE6F09F
:1003C000F7CFE7F0F8CFE8F0DFC0F6FFE0C0F7FFC7
:1003D000E1C0F8FF0001E25302E1E35307E0090046
:1003E000F550EE6EE207F8E2E307F9D7E6C0F6FF54
:1003F000E7C0F7FFE8C0F8FF0001E407000EE55B87
:04040000BFD7120050
:0C040400056A046A100EE76ED8900836F6
:100410000936043605360D50045C0E50055805E3C8
:100420000D50045E0E50055A082AE72EF0D7120030
:10043000000EF36E00EE00F0080E01D81200EA6024
:1004400002D0EE6AFCD7F350E9601200EE6AFCD7E6
:1004500013EE00F023EE00F0F86A019CB3EC01F01B
:0C04600003EC00F0B7EC00F0FBD712003A
:04046C00000000008C
:10047000000000000000000000000000000000007C
:10048000000000000000000000000000040307005E
:0B0490000080400000804100000040A0
