:0600000085EF07F012007D
:020006001200E6
:0600080016EF00F01200EB
:0600180061EF00F0120090
:02001E000100DF
:0C002000260F0000000100001F0000007F
:04002C00DACFE4FF44
:10003000E2CFDAFFE6529E9201010F511DE00F0759
:100040000001610703E10E0E01010E1700016607B2
:1000500003E10D0E01010E170001750703E10B0E00
:1000600001010E1700017A0703E1070E01010E17C7
:1000700001010E518C1621D00001605102E00101F6
:100080000E810001655102E001010E8300017451EF
:1000900002E001010E850001795102E001010E87A5
:1000A00001010E518C12130E0F6F60C061F065C01C
:1000B00066F074C075F079C07AF0E552E5CFDAFFEA
:1000C0001100DACFE4FFE2CFDAFFE9CFE4FFEACFB5
:1000D000E4FFE6529EA637D09E96C750010B03E17F
:1000E000C750040B20E0010110070FE110C1E9FF28
:1000F000EA6AE9BEEA68880EE926000EEA22C9CF5C
:10010000EFFF040E106FC5840BD010C1E9FFEA6A3F
:10011000E9BEEA68880EE926000EEA22C9CFEFFFA1
:10012000C59AC58810D0C7A802D0C5800CD0C550CC
:10013000080B05E1C550200B02E1C58604D0C7A617
:1001400002D0D10EC96EE552E5CFEAFFE5CFE9FF57
:10015000E5CFDAFF1100D9CFE6FFE1CFD9FF0C0ED2
:10016000E12695909592959495969588959A938089
:1001700093821FDBC00EC712280EC66EC56A770EAB
:10018000C86E9F969D869E96C580D08EF28EF28C0C
:100190009D829F82640ECA6E090ECB6EDE6ADD6A96
:1001A000DECF00F0DDCF01F0D890015004E6020E62
:1001B000005C000E015801E3E2D2DECFE9FFDDCFA3
:1001C000EAFF140EEA02F3CFEAFFE902F3CFE9FFF8
:1001D000F450EA26600EE926000EEA22120EE92605
:1001E000000EEA22EECF02F0EFCF03F0DECFE9FF00
:1001F000DDCFEAFF140EEA02F3CFEAFFE902F3CF04
:10020000E9FFF450EA26600EE926000EEA22100EFD
:10021000E926000EEA22EE50025C006EEE50035812
:10022000016EDECFE9FFDDCFEAFF140EEA02F3CF65
:10023000EAFFE902F3CFE9FFF450EA26600EE9266F
:10024000000EEA220A0EE926000EEA2200C0EEFFA6
:1002500001C0EDFFDECFE9FFDDCFEAFF140EEA02B9
:10026000F3CFEAFFE902F3CFE9FFF450EA26600E8C
:10027000E926000EEA220A0EE926000EEA22EECF57
:1002800006F0EFCF07F006C024F007C025F077ECAA
:1002900004F023C002F024C003F025C004F026C0FF
:1002A00005F017C128F018C129F019C12AF01AC1A8
:1002B0002BF002C023F003C024F004C025F005C0D9
:1002C00026F021EC05F05BEC06F024C000F025C020
:1002D00001F0DECFE9FFDDCFEAFF140EEA02F3CF33
:1002E000EAFFE902F3CFE9FFF450EA26600EE926BF
:1002F000000EEA220E0EE926000EEA220050EE263B
:100300000150ED22DECFE9FFDDCFEAFF140EEA0255
:10031000F3CFEAFFE902F3CFE9FFF450EA26600EDB
:10032000E926000EEA220A0EE926000EEA22EECFA6
:100330000EF0EFCF0FF0DECFE9FFDDCFEAFF140EB6
:10034000EA02F3CFEAFFE902F3CFE9FFF450EA262D
:10035000600EE926000EEA220E0EE926000EEA22C1
:100360000E50EE240C6E0F50EE200D6E0CC024F0DB
:100370000DC025F077EC04F023C008F024C009F08C
:1003800025C00AF026C00BF0DECFE9FFDDCFEAFF83
:10039000140EEA02F3CFEAFFE902F3CFE9FFF450CB
:1003A000EA26600EE926000EEA220A0EE926000E71
:1003B000EA22EECF1AF0EFCF1BF0DECFE9FFDDCF60
:1003C000EAFF140EEA02F3CFEAFFE902F3CFE9FFF6
:1003D000F450EA26600EE926000EEA220C0EE92609
:1003E000000EEA22EE501A5C186EEE501B58196E81
:1003F00018C024F019C025F077EC04F023C014F0E5
:1004000024C015F025C016F026C017F01BC128F037
:100410001CC129F01DC12AF01EC12BF014C023F00D
:1004200015C024F016C025F017C026F021EC05F009
:1004300023C010F024C011F025C012F026C013F024
:1004400010C028F011C029F012C02AF013C02BF000
:1004500008C023F009C024F00AC025F00BC026F024
:100460008BEC04F023C004F024C005F025C006F096
:1004700026C007F004C028F005C029F006C02AF005
:1004800007C02BF013C123F014C124F015C125F0CF
:1004900016C126F074EC05F023C000F024C001F072
:1004A00025C002F026C003F09A0E286E990E296E20
:1004B0004C0E2A6E420E2B6E00C023F001C024F0B9
:1004C00002C025F003C026F021EC05F034EC06F064
:1004D000020E25C0DBFFDECFE9FFDDCFEAFF140E01
:1004E000EA02F3CFEAFFE902F3CFE9FFF450EA268C
:1004F000600EE926000EEA220A0EE926000EEA2224
:10050000EECF00F0EFCF01F0DECFE9FFDDCFEAFF65
:10051000140EEA02F3CFEAFFE902F3CFE9FFF45049
:10052000EA26600EE926000EEA220C0EE926000EED
:10053000EA2200C0EEFF01C0EDFF020EDBCFE6FFB6
:10054000DECFE9FFDDCFEAFF140EEA02F3CFEAFFC8
:10055000E902F3CFE9FFF450EA26600EE926000E27
:10056000EA22EF50E552E724E66ED950030F006E01
:10057000DACF01F0DE500024E96EDD500120EA6E92
:10058000E552E750EF6E020EDBCFE6FFDECFE9FF6C
:10059000DDCFEAFF140EEA02F3CFEAFFE902F3CF60
:1005A000E9FFF450EA26600EE926000EEA22050E65
:1005B000E926000EEA22EF50E552D880E754E66EB5
:1005C000D950050F006EDACF01F0DE500024E96E3D
:1005D000DD500120EA6EE552E750EF6E020EDBCFF0
:1005E00000F0000EE76E0018E8AE02D0003403D031
:1005F000E750D880005423E2D950030F026EDACFBF
:1006000003F0DE500224006EDD500320016E070E61
:1006100000C0DBFF080E01C0DBFFD950050F026EE2
:10062000DACF03F0DE500224006EDD500320016EAD
:10063000090E00C0DBFF0A0E01C0DBFF22D0D9503B
:10064000030F026EDACF03F0DE500224006EDD509D
:100650000320016E090E00C0DBFF0A0E01C0DBFFA4
:10066000D950050F026EDACF03F0DE500224006E7F
:10067000DD500320016E070E00C0DBFF080E01C035
:10068000DBFF070EDBCFE9FF080EDBCFEAFFEFCF82
:1006900000F0140EE76E0018E8AE02D0003403D06C
:1006A000E750D88000541EE2070EDBCFE9FF080EAA
:1006B000DBCFEAFFEF50EC0FE76E0B0EE7CFDBFF6F
:1006C000070EDBCFE9FF080EDBCFEAFF0B0EDB5096
:1006D000EF5E090EDBCFE9FF0A0EDBCFEAFF0B0E60
:1006E000DB50EF5E090EDBCFE9FF0A0EDBCFEAFF3E
:1006F000EFCF00F000343EE3070EDBCFE9FF080E3A
:10070000DBCFEAFFEFCF01F0090EDBCFE9FF0A0EE6
:10071000DBCFEAFFEF50015C006E140EE76E0018AD
:10072000E8AE02D0E73402D0E750005C11E2070ED9
:10073000DBCFE9FF080EDBCFEAFFEFCF02F0090EB7
:10074000DBCFE9FF0A0EDBCFEAFFEF50025C01D0FE
:10075000140EE66E070EDBCFE9FF080EDBCFEAFFD3
:10076000E552E750EF6E090EDBCFE9FF0A0EDBCF53
:10077000EAFFEF6ADF2A010E01E3DB2A11D5030E3F
:10078000DBCF60F0050EDBCF65F0040EDBCF74F03D
:10079000060EDBCF79F002D50C0EE15C02E2E16AD5
:1007A000E552E16EE552E7CFD9FF120012001200C8
:1007B0001200D9CFE6FFE1CFD9FF020EE126DE6AB3
:1007C000DD6A00016A6B6B6B6C6B6D6B6E6B6F6BD4
:1007D000706B716B726B736B7E6B7F6B806B816BFD
:1007E000826B836B846B856B866B876BDE6ADD6ADD
:1007F000DECF00F0DDCF01F0D890015004E6650EA9
:10080000005C000E015829E2140E246E256ADECF2A
:1008100029F0DDCF2AF007EC06F022C000F023C05B
:1008200001F0640E296E2A6A00C024F001C025F090
:10083000E1EC05F024C000F025C001F0DECFE9FFB7
:10084000DDCFEAFF8C0EE926000EEA2200C0EFFFA2
:10085000DF2A010E01E3DB2ACBD7DE6ADD6ADECFB9
:1008600000F0DDCF01F00001800E011414E0DECFB6
:10087000E9FFDDCFEAFF640ED880E956000EEA56A4
:100880008C0EE926000EEA22140EEF6EDF2A010E0E
:1008900001E3DB2AE4D78CC060F000018C0E626FAC
:1008A0000F0E636F646B8CC065F08C0E676F0F0E5C
:1008B000686F010E696FA5C074F08C0E766F0F0E15
:1008C000776F020E786FDCC079F08C0E7B6F0F0EA5
:1008D0007C6F030E7D6F020EE15C02E2E16AE5527D
:0A08E000E16EE552E7CFD9FF1200E8
:0608EA001D9E08D01D9EBA
:1008F00025AE05D0246C251EE86A25221D8E25C054
:100900001FF024C01EF02F6A2E6A8E0E206E216A00
:10091000A6EF06F02B7E1D6AE2EC06F0FAEC06F07C
:100920001DB68AEF06F01DA20AD01DAA03D01DBE77
:100930008AEF06F01DA496EF06F093EF06F01DAACD
:1009400005D01DAC96EF06F093EF06F01DA00AD07F
:100950001DA808D01DBE04D01DA402D09FEF06F034
:10096000A3EF06F02E6A216A2B50265C2D6E10E351
:1009700023C02FF024C01EF025C01FF026C02CF08D
:1009800028C023F029C024F02AC025F01D3A09D040
:1009900028C02FF029C01EF02AC01FF02BC02CF059
:1009A0002D6C1D9E1DBC1D8E2CC020F01DB0D2EFE5
:1009B00006F01A0E2D60D2EF06F0206A266A1DA4FA
:1009C00008D0236C241E251E261EE86A2422252218
:1009D00026221DAC08D02F6C1E1E1F1E201EE86A8A
:1009E0001E221F222022226A2D5207E026342532A1
:1009F0002432233222322D2EF9D723502F26245091
:100A00001E2225501F222650202222C02EF01D9E7D
:100A100020AE0BD02E6C2F1E1E1E1F1E201EE86A3D
:100A20002F221E221F2220221D8E20A006D0D88019
:100A30001F321E322F322E322C2A2CC020F0A6EF6D
:100A400006F01D6AE2EC06F0FAEC06F01DB68AEF3D
:100A500006F01DA205D01DBA8AEF06F091EF06F050
:100A60001DBA9DEF06F01DA005D01DB88AEF06F057
:100A70009DEF06F01DB891EF06F0216A7F0E262447
:100A8000206EE86A21222B50205EE86A215A1A0E55
:100A90002C6E266A2E6A2F6A1E6A1F6A2850235EF1
:100AA0002950245A2A50255A000E265A09E7285060
:100AB0002326295024222A502522000E262201D046
:100AC0002E8AD8902336243625362636D8902E36D0
:100AD0002F361E361F362C2EE1D72550241023101A
:100AE000D8A42E8AA6EF06F01D6AE2EC06F0FAEC16
:100AF00006F01DB68AEF06F01DA205D01DB88AEFDC
:100B000006F091EF06F01DAA05D01DB08AEF06F0A1
:100B100091EF06F01DB002D01DA802D09DEF06F0A7
:100B2000216A2B502624206EE86A21227E0E205E48
:100B3000E86A215A2E6A2F6A1E6A1F6A2A50250205
:100B4000F4CF1FF0F3CF1EF029502502F3502F26CB
:100B5000F4501E22000E1F222A502402F3502F268A
:100B6000F4501E22000E1F2228502502F3502E267C
:100B7000F4502F22000E1E221F2229502402F3506F
:100B80002E26F4502F22000E1E221F222A5023024E
:100B9000F3502E26F4502F22000E1E221F22285022
:100BA0002402F4502E26000E2F221E221F2229502E
:100BB0002302F4502E26000E2F221E221F22A6EF03
:100BC00006F01C6A2AAEEAEF05F0296C2A1EE86AD4
:100BD0002A221C1E25AEF2EF05F0246C251EE86AC1
:100BE00025221C1E5FEC07F025BE02EF06F01CAEAE
:100BF000000C246C251EE86A2522206C211EE86A60
:100C00002122000C1CBEF9EF05F01D88FF0C25C049
:100C10002FF024C02EF024502902F4CF23F0F3CF7C
:100C200022F025502A02F4CF25F0F3CF24F0290238
:100C3000F3502326F4502422E86A25222E502A025B
:100C4000F3502326F4502422E86A25222AAE2DEF01
:100C500006F02E50245E2F50255A2FAE000C29503E
:100C6000245E2A50255A000C1D6AE2EC06F01DB6DF
:100C70003EEF06F01DA20AD01DB403D07F0E256EF4
:100C800019D0800E256E16D0256A14D01DB0FCD761
:100C9000870E2660F1D77E0E2664F6D7860E265C78
:100CA00004E0D8902532262AF9D71DA403D0256C5C
:100CB00025AEEAD712001D6AE2EC06F01DB665EF1C
:100CC00006F01DA20ED01DB405D07F0E256EFF0EBE
:100CD000246E1FD0800E256E246A1BD0256A246ADC
:100CE00018D01DB0FBD78F0E2660EDD77E0E266480
:100CF000F5D78E0E265C05E0D89025322432262AC0
:100D0000F8D71DA406D0246C251EE86A252225AE3E
:100D1000E5D712007F0E266EFF0E256E246E236E21
:100D200012007F0E1DBEFF0E266E02D07F0E266EB5
:100D3000800E256E246A236AF3D71DAE04D0800E80
:100D4000266E256AF7D7266A256AF4D71F501E102B
:100D50002F102E10F8E021BEF0D71FBE0CD020506F
:100D60002110EBE0D8902E362F361E361F36200687
:100D7000D8A02106F2D72150D4E12028D2E02EAE0F
:100D800011D07F0E2E1402E12FA00CD02F2AE86A7A
:100D90001E221F2207E3D8801F321E322F32202A44
:100DA0002028BFE02050C9E02FC023F01EC024F04F
:100DB0001F34256E2030266E2532269E1DBE268EBF
:100DC00090EF06F02536263602E31D841D7E06E1EF
:100DD0001D80266A256A246A236A1200262803E0F9
:100DE000D88025321200D890253202E11D821200EF
:100DF0001D8612002A362B3602E31D8C1D7E06E16D
:100E00001D882B6A2A6A296A286A12002B2803E0A7
:100E1000D8802A321200D8902A32EAE11D8A1200C4
:100E20001E0EF66E000EF76E000EF86E0001090041
:100E3000F550F86F0900F550F96F03E1F86701D03C
:100E40003DD00900F550F36F0900F550F46F09002B
:100E5000F550F56F09000900F550E96E0900F550ED
:100E6000EA6E090009000900F550F66F0900F55017
:100E7000F76F09000900F6CFFAF0F7CFFBF0F8CFD3
:100E8000FCF0F3C0F6FFF4C0F7FFF5C0F8FF000177
:100E9000F65302E1F75307E00900F550EE6EF6074E
:100EA000F8E2F707F9D7FAC0F6FFFBC0F7FFFCC07E
:0E0EB000F8FF0001F807000EF95BBFD7120033
:020EBE00216AA7
:100EC000206A100EE76ED89024362536203621365B
:100ED0002950205C2A50215805E32950205E2A50D1
:0A0EE000215A242AE72EF0D7120051
:060EEA00000EF36E00EEA5
:100EF00000F0080E01D81200EA6002D0EE6AFCD7BA
:0A0F0000F350E9601200EE6AFCD71E
:060F0A0013EE00F023EEDF
:100F100000F0F86A1D9C10EC07F003EC00F0ABEC5D
:060F200000F0FBD71200F7
:0A0F260000000000000000000000C1
:100F30000000000000000403070000804000008063
:050F400041000000402B
