:020000040000FA
:06000000FFEF01F0120009
:020006001200E6
:0600080016EF00F01200EB
:02000E000FFFE2
:060018005FEF00F0120092
:02001E000100DF
:0C0020000E000000EB00000002000000D9
:04002C00DACFE4FF44
:10003000E2CFDAFFE6529EA23ED09E920001EC2B68
:10004000140EEC5D1AE1EC6BEB6B0001C55102E0A4
:100050000001EB810001C95102E00001EB830001C6
:10006000CD5102E00001EB850001D15102E0000119
:10007000EB870001EB518C121ED0EC510001C55DE5
:1000800002E10001EB910001EC510001C95D02E1C8
:100090000001EB930001EC510001CD5D02E1000194
:1000A000EB950001EC510001D15D02E10001EB97FD
:1000B0000001EB518C16E552E5CFDAFF1100DACFE3
:1000C000E4FFE2CFDAFFE9CFE4FFEACFE4FFF3CFCA
:1000D000E4FFF4CFE4FFE652D9CFE6FFE1CFD9FF4A
:1000E000E6529E9CC250E840E8403F0BDF6EC45091
:1000F000166E16C017F0166AC35000011624146E4F
:10010000000E1720156EDFCFE9FFEA6AE9BEEA6844
:10011000D890E936EA36D50EE926000EEA2214C058
:10012000EEFF15C0EDFFDF5006E0DF04040DF350D5
:10013000030FC26E02D0170EC26EE552E552E7CF32
:10014000D9FFE552E5CFF4FFE5CFF3FFE5CFEAFFB6
:10015000E5CFE9FFE5CFDAFF1100959095929594F0
:1001600095969588959A92809282928492869288AA
:100170009680090EC16E8E0EC06E10D8D08EF28E93
:10018000F28C9D829F82640ECA6E090ECB6E9E9C7D
:100190009F9C9D8C170EC26EFFD71200D9CFE6FF31
:1001A000E1CFD9FF020EE126DE6ADD6ADE6ADD6A92
:1001B000DECF18F0DDCF19F0D890195004E6650EA7
:1001C000185C000E195829E2140E086E096ADECF79
:1001D0000DF0DDCF0EF05DEC01F006C018F007C0A9
:1001E00019F0640E0D6E0E6A18C008F019C009F0FF
:1001F00037EC01F008C018F009C019F0DECFE9FFB4
:10020000DDCFEAFF600EE926000EEA2218C0EFFFFC
:10021000DF2A010E01E3DB2ACBD765C0C5F0000160
:100220008C0EC66F0F0EC76FC86B79C0C9F08C0EED
:10023000CA6F0F0ECB6F010ECC6FABC0CDF08C0E22
:10024000CE6F0F0ECF6F020ED06FC4C0D1F08C0EE8
:10025000D26F0F0ED36F030ED46F020EE15C02E279
:0E026000E16AE552E16EE552E7CFD9FF1200E8
:02026E00006A24
:100270000EAE40EF01F00D6C0E1EE86A0E22001E5D
:1002800009AE48EF01F0086C091EE86A0922001E59
:10029000D9EC01F009BE58EF01F000AE000C086C7B
:1002A000091EE86A0922046C051EE86A0522000C92
:1002B00000BE4FEF01F00188FF0C09C013F008C029
:1002C00012F008500D02F4CF07F0F3CF06F00950FA
:1002D0000E02F4CF09F0F3CF08F00D02F350072619
:1002E000F4500822E86A092212500E02F350072641
:1002F000F4500822E86A09220EAE83EF01F0125092
:10030000085E1350095A13AE000C0D50085E0E50D3
:04031000095A000C7A
:0C0314001E0EF66E000EF76E000EF86E66
:1003200000010900F550E66F0900F550E76F03E1A1
:10033000E66701D03DD00900F550E16F0900F550A6
:10034000E26F0900F550E36F09000900F550E96E0E
:100350000900F550EA6E090009000900F550E46F44
:100360000900F550E56F09000900F6CFE8F0F7CF76
:10037000E9F0F8CFEAF0E1C0F6FFE2C0F7FFE3C032
:10038000F8FF0001E45302E1E55307E00900F550EE
:10039000EE6EE407F8E2E507F9D7E8C0F6FFE9C03A
:1003A000F7FFEAC0F8FF0001E607000EE75BBFD7E2
:0203B000120039
:0E03B200056A046A100EE76ED8900836093608
:1003C000043605360D50045C0E50055805E30D50FB
:0E03D000045E0E50055A082AE72EF0D71200E0
:0203DE00000E0F
:1003E000F36E00EE00F0080E01D81200EA6002D0B1
:0E03F000EE6AFCD7F350E9601200EE6AFCD70B
:0203FE0013EEFC
:1004000000F023EE00F0F86A019C8AEC01F003ECA6
:0A04100000F0ADEC00F0FBD7120085
:020000040030CA
:0100000003FC
:010001000EF0
:010003001EDE
:00000001FF
