:020000040000FA
:0600000095EF00F0120074
:020006001200E6
:060008005DEF00F01200A4
:02000E000100EF
:0C001000460100006A0000000100000032
:04001C000E0EF66E60
:10002000000EF76E000EF86E00010900F550656FC6
:100030000900F550666F03E1656701D03DD0090006
:10004000F550606F0900F550616F0900F550626F5F
:1000500009000900F550E96E0900F550EA6E090043
:1000600009000900F550636F0900F550646F09003D
:100070000900F6CF67F0F7CF68F0F8CF69F060C0FD
:10008000F6FF61C0F7FF62C0F8FF0001635302E1B1
:10009000645307E00900F550EE6E6307F8E2640769
:1000A000F9D767C0F6FF68C0F7FF69C0F8FF000125
:0A00B0006507000E665BBFD7120063
:0600BA00DACFE4FFE2CF03
:1000C000DAFFE652F09283CF6AF08C708C728C74F7
:1000D0008C768C7A8C7C8C7E83CF6AF0E552E5CF6F
:1000E000DAFF110095909592959495969588959A3A
:1000F000C168F092F088F08EF28E8350100B01E010
:0A010000010E00016A6FF9D712002A
:06010A00000EF36E00EE92
:1001100000F0080E01D81200EA6002D0EE6AFCD7A7
:0A012000F350E9601200EE6AFCD70C
:06012A0013EE00F023EECD
:1001300000F0F86A019C0EEC00F003EC00F072ECA9
:0601400000F0FBD71200E5
:0101460000B8
:00000001FF
